:020000040800F2
:1000000000800120F5200008F11F0008F31F000800
:10001000F51F0008F71F0008F91F00080000000086
:10002000000000000000000000000000FB1F0008AE
:10003000FD1F000800000000FF1F0008012000084D
:1000400045210008452100084521000845210008F8
:1000500045210008452100084521000845210008E8
:1000600045210008452100084521000845210008D8
:1000700045210008452100084521000845210008C8
:100080004521000845210008452100080000000026
:1000900000000000000000000000000045210008F2
:1000A0004521000845210008452100084521000898
:1000B0004521000845210008452100084521000888
:1000C0004521000845210008452100084521000878
:1000D00045210008452100084521000800000000D6
:1000E00045210008452100084521000800000000C6
:1000F0000000000000000000000000004521000892
:1001000000000000452100084521000845210008A5
:1001100000000000000000000000000000000000DF
:100120004521000845210008452100084521000817
:100130004521000800000000000000000000000051
:100140000000000000000000000000004521000841
:1001500045210008452100084521000845210008E7
:1001600045210008452100080000000000000000B3
:10017000000000000000000000000000000000007F
:100180000000000045210008000000000000000001
:0401900045210008FD
:1001A00010B5054C237833B9044B13B10448AFF3B1
:1001B00000800123237010BD7000002000000000AB
:1001C000C43000080C4B43B10C480D4910B5AFF3D7
:1001D00000800C48036823B910BD0A48036833B98E
:1001E0007047094B002BF7D0BDE810401847064B6D
:1001F000002BF5D0184700BF00000000C4300008F5
:1002000074000020700000200000000053B94AB9BB
:10021000002908BF00281CBF4FF0FF314FF0FF300E
:1002200000F07AB9ADF1080C6DE904CE00F006F8E3
:10023000DDF804E0DDE9022304B070472DE9F04762
:100240008C460D460446089E002B51D18A42174623
:100250006DD9B2FA82FEBEF1000F0BD0CEF1200CA8
:1002600001FA0EF520FA0CFC02FA0EF74CEA050C26
:1002700000FA0EF44FEA174A250CBCFBFAF81FFAF5
:1002800087F90AFB18CC45EA0C4508FB09F3AB4299
:100290000AD9ED1908F1FF3280F02381AB4240F218
:1002A0002081A8F102083D44ED1AA4B2B5FBFAF092
:1002B0000AFB105544EA054400FB09F9A14509D998
:1002C000E41900F1FF3380F00A81A14540F2078173
:1002D00002383C44A4EB090440EA08400021002E07
:1002E00061D024FA0EF4002334607360BDE8F08717
:1002F0008B4207D9002E54D0002186E82100084601
:10030000BDE8F087B3FA83F1002940F08E80AB425C
:1003100002D3824200F2FA80841A65EB03050120C1
:10032000AC46002E3FD086E81010BDE8F08712B929
:100330000127B7FBF2F7B7FA87FEBEF1000F34D101
:10034000EB1B3A0C1FFA87FC0121B3FBF2F8250CDA
:1003500002FB183345EA03450CFB08F3AB4207D90F
:10036000ED1908F1FF3002D2AB4200F2D180804695
:10037000ED1AA3B2B5FBF2F002FB105543EA0544B7
:100380000CFB00FCA44507D9E41900F1FF3302D2AD
:10039000A44500F2B8801846A4EB0C0440EA0840DB
:1003A0009DE731463046BDE8F087CEF1200405FADE
:1003B0000EF307FA0EF720FA04F83A0C25FA04F4C3
:1003C00048EA0308B4FBF2F14FEA184502FB114476
:1003D0001FFA87FC45EA044501FB0CF3AB4200FA27
:1003E0000EF409D9ED1901F1FF3080F08A80AB429B
:1003F00040F2878002393D44EB1A1FFA88F5B3FBBF
:10040000F2F002FB103345EA034500FB0CF3AB426C
:1004100007D9ED1900F1FF386FD2AB426DD9023820
:100420003D44EB1A40EA01418FE7C1F1200722FA6F
:1004300007F88B4005FA01F448EA030320FA07FEA7
:100440004FEA134CFD404EEA040EB5FBFCF94FEAAF
:100450001E440CFB19551FFA83F844EA054509FBB5
:1004600008F4AC4202FA01F200FA01FA08D9ED18D8
:1004700009F1FF3043D2AC4241D9A9F102091D4430
:100480002D1B1FFA8EFEB5FBFCF00CFB10554EEA3F
:10049000054400FB08F8A04507D9E41800F1FF3532
:1004A00029D2A04527D902381C4440EA0940A4EBD0
:1004B0000804A0FB02894C45C6464D4615D312D010
:1004C00056B1BAEB0E0364EB050404FA07F7CB4010
:1004D0001F43CC40376074600021BDE8F0871846A8
:1004E000F8E69046E0E6C245EAD2B8EB020E69EBC8
:1004F00003050138E4E72846D7E7404691E78146FF
:10050000BEE7014678E702383C4445E7084608E77D
:10051000A8F102083D442BE7704700BF000000002F
:1005200001F0FF01102A2BDB10F0070F08D010F8A4
:10053000013B013A8B422DD010F0070F42B3F6D1A8
:10054000F0B441EA012141EA014122F007047FF0C1
:1005500000070023F0E80256083C85EA010586EA18
:10056000010685FA47F5A3FA87F586FA47F6A5FA54
:1005700087F68EB9EED1F0BC01F0FF0102F0070260
:1005800032B110F8013B013A83EA010313B1F8D10B
:100590000020704701387047002D06BF35460338EC
:1005A000073815F0010F07D1013015F4807F02BF25
:1005B000013015F4C03F0130F0BC0138704700BF76
:1005C00010B504460E4B18784FF47A73B3FBF0F372
:1005D0000C4A1068B0FBF3F000F09AF868B90F2CE1
:1005E00001D9012010BD002221464FF0FF3000F05C
:1005F0005DF8034B5C60002010BD012010BD00BF02
:10060000000000200800002008B50B4B1A6842F4D7
:1006100000721A601A6842F480621A601A6842F422
:1006200080721A60032000F02FF80020FFF7C8FF47
:1006300001F0BEFC002008BD003C0240034A1168E6
:10064000034B1B780B441360704700BF98000020D9
:1006500000000020014B1868704700BF9800002080
:1006600038B50446FFF7F6FF0546B4F1FF3F02D068
:10067000044B1B781C44FFF7EDFF401B8442FAD863
:1006800038BD00BF00000020074AD36823F4E063B0
:100690001B041B0C000200F4E060184340F0BF6034
:1006A00040F40030D060704700ED00E030B4164BED
:1006B000DB68C3F30223C3F10704042C28BF04241E
:1006C0001D1D062D17D9033B012505FA04F4013C35
:1006D0002140994005FA03F3013B134019430028D8
:1006E0000BDB0901C9B200F1604000F5614080F800
:1006F000001330BC70470023E6E700F00F0009014B
:10070000C9B2024B1954F4E700ED00E014ED00E02B
:100710000138B0F1807F0AD2064B5860F021064ABA
:1007200082F823100020986007221A607047012089
:10073000704700BF10E000E000ED00E0F0B583B0CE
:1007400000248FE0E608083650F8262004F0070E53
:100750004FEA8E0E0F2707FA0EF722EA07020F69FB
:1007600007FA0EF73A4340F826208BE086681640D9
:10077000CF6807FA0EF73E438660466826EA030311
:100780004E68C6F30016A64033434360C3681A4060
:100790008B6803FA0EF31A43C2604B6813F0805F54
:1007A0005FD0002301934B4B5A6C42F480425A6451
:1007B0005B6C03F480430193019BA208961C464B9B
:1007C00053F8263004F00306B6000F27B74023EA9B
:1007D0000703424FB84272D007F58067B84270D025
:1007E00007F58067B8426ED007F58067B8426CD0D5
:1007F00007F58067B84260D0072707FA06F633434B
:100800000232354E46F82230354B1A68EB4302EA85
:1008100003064F6817F4803F01D045EA0206304ACC
:100820001660526803EA02064F6817F4003F01D0D1
:1008300045EA02062A4A5660926803EA02064F68B1
:1008400017F4801F01D045EA0206254A9660D26857
:1008500013404E6816F4001F01D045EA0203204AF7
:10086000D36001340F2C32D80123A3400A6803EA75
:100870000205AB42F5D14A68022A3FF463AF122A5F
:100880003FF460AF06684FEA440E032202FA0EF20C
:10089000D24316404F6807F0030707FA0EF73E43AE
:1008A00006604E68771E012F7FF660AF112E3FF471
:1008B0005DAF122E7FF46AAF58E704279DE700274B
:1008C0009BE7012799E7022797E7032795E703B0FE
:1008D000F0BD00BF00380240003801400000024077
:1008E000003C014012B90904816170478161704781
:1008F000002800F0BB8170B582B00446036813F095
:10090000010F3BD0A74B9B6803F00C03042B2CD0AA
:10091000A44B9B6803F00C03082B21D06368B3F54C
:10092000803F4FD0B3F5A02F52D09E4B1A6822F4CF
:1009300080321A601A6822F480221A606368002BE1
:1009400050D0FFF787FE0546964B1B6813F4003F17
:1009500014D1FFF77FFE401B6428F5D903208AE1FC
:10096000904B5B6813F4800FD8D08E4B1B6813F448
:10097000003F03D06368002B00F07A81236813F0F6
:10098000020F55D0874B9B6813F00C0F3ED0854B60
:100990009B6803F00C03082B33D0E368002B68D06E
:1009A0000122814B1A60FFF755FE05467D4B1B68FF
:1009B00013F0020F54D1FFF74DFE401B0228F5D96A
:1009C000032058E1774A136843F480331360B5E796
:1009D000744B1A6842F480221A601A6842F480321A
:1009E0001A60ABE7FFF736FE05466E4B1B6813F443
:1009F000003FC3D0FFF72EFE401B6428F5D903202B
:100A000039E1684B5B6813F4800FC6D1654B1B68F6
:100A100013F0020F04D0E368012B01D001202AE17A
:100A2000604A136823F0F803216943EAC1031360A5
:100A3000236813F0080F40D0636963B301225B4B56
:100A40001A60FFF707FE0546564B5B6F13F0020F67
:100A500033D1FFF7FFFD401B0228F5D903200AE13F
:100A6000504A136823F0F803216943EAC103136075
:100A7000DEE700224C4B1A60FFF7ECFD0546494BC0
:100A80001B6813F0020FD3D0FFF7E4FD401B0228D0
:100A9000F5D90320EFE00022444B1A60FFF7DAFD9E
:100AA0000546404B5B6F13F0020F06D0FFF7D2FDF7
:100AB000401B0228F5D90320DDE0236813F0040F62
:100AC00079D0384B1B6C13F0805F33D10023019336
:100AD000344B1A6C42F080521A641B6C03F0805342
:100AE0000193019B0125324B1B6813F4807F23D0B7
:100AF000A368012B34D0052B38D02A4B1A6F22F073
:100B000001021A671A6F22F004021A67A368002B09
:100B100036D0FFF79FFD0646224B1B6F13F0020FE6
:100B200048D1FFF797FD801B41F288339842F3D9F3
:100B30000320A0E00025D6E71D4A136843F4807324
:100B40001360FFF787FD0646194B1B6813F4807F7F
:100B5000CED1FFF77FFD801B0228F5D903208AE064
:100B6000104A136F43F001031367CFE70D4B1A6F61
:100B700042F004021A671A6F42F001021A67C5E7D1
:100B8000FFF768FD0646074B1B6F13F0020F11D0ED
:100B9000FFF760FD801B41F288339842F3D90320B0
:100BA00069E000BF0038024000004742800E474223
:100BB00000700040E5B9A369002B5BD0304A926811
:100BC00002F00C02082A58D0022B17D000222D4B1D
:100BD0001A60FFF73FFD0446294B1B6813F0007FA6
:100BE00042D0FFF737FD001B0228F5D9032042E071
:100BF000234A136C23F080531364DCE70022214B5B
:100C00001A60FFF727FD05461D4B1B6813F0007F98
:100C100006D0FFF71FFD401B0228F5D903202AE06C
:100C2000E369226A1343626A43EA8213A26A5208A2
:100C3000013A43EA0243E26A43EA0263104A53601C
:100C40000122104B1A60FFF705FD04460C4B1B6890
:100C500013F0007F06D1FFF7FDFC001B0228F5D939
:100C6000032008E0002006E0002004E00120704797
:100C7000012000E0002002B070BD0120FBE700BFB2
:100C80000038024060004742F8B5314B9B6803F0E2
:100C90000C03042B59D0082B01D02E48F8BD2C4B47
:100CA0005A6802F03F025B6813F4800F2AD0284B89
:100CB0005B68C3F388131E4600275C010025E41A15
:100CC00065EB0705A90141EA9461A001001B61EBF6
:100CD0000501CB0043EA5073C400A01943EB0701A0
:100CE0004B0243EAD0534402204619460023FFF743
:100CF0008DFA174B5B68C3F3014301335B00B0FB14
:100D0000F3F0F8BD124B5B68C3F388131E4600274F
:100D10005C010025E41A65EB0705A90141EA94612D
:100D2000A001001B61EB0501CB0043EA5073C40036
:100D3000A01943EB07018B0243EA9053840220463B
:100D400019460023FFF762FAD3E70348F8BD00BF56
:100D5000003802400024F40000127A00002800F05D
:100D60009D8070B504464F4B1B6803F00F038B4208
:100D700009D2CBB24B4A1370136803F00F039942A8
:100D800001D0012070BD236813F0020F17D013F0BB
:100D9000040F04D0444A936843F4E05393602368FB
:100DA00013F0080F04D0404A936843F46043936003
:100DB0003D4A936823F0F003A068034393600D4617
:100DC000236813F0010F32D06368012B21D09A1EE3
:100DD000012A25D9344A126812F0020F60D0324934
:100DE0008A6822F0030213438B60FFF733FC064648
:100DF0002D4B9B6803F00C036268B3EB820F16D097
:100E0000FFF728FC801B41F288339842F0D9032079
:100E100070BD254A126812F4003FE0D1012070BD78
:100E2000214A126812F0007FD9D1012070BD1D4BFC
:100E30001B6803F00F039D4209D2EAB2194B1A70E6
:100E40001B6803F00F039D4201D0012070BD236891
:100E500013F0040F06D0144A936823F4E053E168BA
:100E60000B439360236813F0080F07D00E4A936872
:100E700023F46043216943EAC1039360FFF704FF51
:100E8000094B9B68C3F30313084AD35CD840084B53
:100E900018600020FFF794FB002070BD0120704710
:100EA000012070BD003C024000380240DC300008E8
:100EB00008000020014B1868704700BF08000020A0
:100EC00008B5FFF7F7FF044B9B68C3F38223034A7F
:100ED000D35CD84008BD00BF00380240EC300008A9
:100EE00008B5FFF7E7FF044B9B68C3F34233034A9F
:100EF000D35CD84008BD00BF00380240EC30000889
:100F0000F8B505460F4616461C463BE02CB1FFF7E8
:100F1000A1FB069BC01A844234D82A68536823F088
:100F2000E00353606B68B3F5827F0BD0AB6AB3F517
:100F3000005F14D0012385F85130002385F850302C
:100F40000320F8BDAB68B3F5004F02D0B3F5806F56
:100F5000ECD12A68136823F040031360E6E72A689F
:100F6000136823F400531B041B0C13602A681368D6
:100F700043F400531360DDE70123B34209D0B4F119
:100F8000FF3FC3D12B689B6837EA0303F4D00023EB
:100F9000F3E70020F8BD10B582B0044600920B467E
:100FA00000228021FFF7ACFF034620B1636D43F0C0
:100FB000200363650323184602B010BD00283BD010
:100FC00010B504460023836290F85130002B2ED0D8
:100FD000022384F851302268136823F04003136021
:100FE00022686368A1680B43E1680B4321690B43E6
:100FF00061690B43A16901F400710B43E1690B4383
:10100000216A0B43A16A0B4313602268638B03F0D0
:101010000403616A0B4353602268D36923F40063BD
:10102000D36100206065012384F8513010BD80F841
:10103000503000F085FFCBE7012070472DE9F043E9
:1010400085B098460C9D90F85030012B04D10223B6
:10105000184605B0BDE8F08304460F461646012346
:1010600080F85030FFF7F6FA814694F85130DBB241
:101070006268012B12D0B2F5827F07D002230122D1
:1010800084F85120002284F85020E1E7A268002A69
:1010900040F0E980042B01D00223F0E7002F00F09C
:1010A000E480002E00F0E380B8F1000F00F0E18052
:1010B00094F85130DBB2012B2CD000236365A6637A
:1010C000A4F83E80A4F83C802763A4F83680A4F8F6
:1010D00034802364636423681A6812F0400F03D1DC
:1010E0001A6842F040021A60E368B3F5006F15D049
:1010F00063681BB1E38E9BB2012B08D1236817F8FC
:10110000012B1A73E38E9BB2013B9BB2E3864FF037
:10111000010869E0052384F85130CEE763681BB10C
:10112000E38E9BB2012B08D1236837F8022BDA60DB
:10113000E38E9BB2013B9BB2E3864FF001081AE0BD
:10114000E38F9BB273B123689A6812F0010F09D044
:10115000DB6826F8023BE38F9BB2013B9BB2E3873F
:101160004FF00108B5F1FF3F05D0FFF773FAA0EB90
:10117000090085427FD9E38E9BB21BB9E38F9BB2F6
:10118000002B4ED0B8F1000FDAD0E38E9BB2002BCB
:10119000D6D023689A6812F0020FD1D037F8022B0C
:1011A000DA60E38E9BB2013B9BB2E3864FF000080E
:1011B000C6E7E38F9BB273B123689A6812F0010F00
:1011C00009D0DB683370E38F9BB2013B9BB2E387AE
:1011D00001364FF00108B5F1FF3F05D0FFF73AFAAD
:1011E000A0EB0900854248D9E38E9BB213B9E38F87
:1011F0009BB2B3B1B8F1000FDBD0E38E9BB2002BF2
:10120000D7D023689A6812F0020FD2D03A781A73B6
:10121000E38E9BB2013B9BB2E38601374FF000089F
:10122000C7E7CDF800902B46012202212046FFF7A8
:1012300067FE08B1032322E74A4629462046FFF706
:10124000AAFE034618B120236365012317E7A268AD
:10125000002A7FF414AF03922268D1680391926848
:101260000392039A0BE7022309E7012307E701230F
:1012700005E7012303E7032301E70323FFE600005B
:101280002DE9F04704460268136923F44053C1680E
:101290000B4313610168CB6823F4164323F00C035E
:1012A00082680069024360690243E06902431343B4
:1012B000CB602268536923F44073A1690B435361E7
:1012C000E369B3F5004F62D0D4F80080BB4B98457A
:1012D00000F01B8103F58063984500F01681FFF74D
:1012E000EFFD00EB800000EB80006568AD00B0FB17
:1012F000F5F5B34FA7FB05356D092E01FFF7E0FDAE
:1013000000EB800000EB80006568AD00B0FBF5FAF3
:10131000FFF7D6FD00EB800000EB80006568AD00B4
:10132000B0FBF5F5A7FB05356D094FF0640909FB26
:1013300015A52D013235A7FB05356D0905F0F00522
:101340003544FFF7BDFD00EB800000EB80006668D0
:10135000B600B0FBF6F6FFF7B3FD00EB800000EB44
:10136000800063689B00B0FBF3F0A7FB00304009EE
:1013700009FB10694FEA091909F13209A7FB09377E
:10138000C7F343172F44C8F80870BDE8F087D4F8B6
:10139000008003F1804303F5104398455CD003F5CA
:1013A0008063984558D0FFF78BFD00EB800000EB81
:1013B000800065686D00B0FBF5F5814FA7FB053532
:1013C0006D092E01FFF77CFD00EB800000EB800033
:1013D00065686D00B0FBF5FAFFF772FD00EB800069
:1013E00000EB800065686D00B0FBF5F5A7FB0535E7
:1013F0006D094FF0640909FB15A5ED003235A7FB17
:1014000005356D096D0005F4F8753544FFF758FD95
:1014100000EB800000EB800066687600B0FBF6F61B
:10142000FFF74EFD00EB800000EB800063685B007F
:10143000B0FBF3F3A7FB03235B0909FB13694FEA36
:10144000C90909F13209A7FB0937C7F342172F442D
:10145000C8F80870BDE8F087FFF742FD00EB800098
:1014600000EB800065686D00B0FBF5F5544FA7FBFD
:1014700005356D092E01FFF733FD00EB800000EB11
:10148000800065686D00B0FBF5FAFFF729FD00EB01
:10149000800000EB800065686D00B0FBF5F5A7FBF0
:1014A00005356D094FF0640909FB15A5ED003235CE
:1014B000A7FB05356D096D0005F4F8753544FFF798
:1014C0000FFD00EB800000EB800066687600B0FB4B
:1014D000F6F6FFF705FD00EB800000EB8000636887
:1014E0005B00B0FBF3F3A7FB03235B0909FB136964
:1014F0004FEAC90909F13209A7FB0937C7F34217B7
:101500002F44C8F80870BDE8F087FFF7E9FC00EB4E
:10151000800000EB80006568AD00B0FBF5F5284F5A
:10152000A7FB05356D092E01FFF7DAFC00EB800003
:1015300000EB80006568AD00B0FBF5FAFFF7D0FC6A
:1015400000EB800000EB80006568AD00B0FBF5F5B6
:10155000A7FB05356D094FF0640909FB15A52D01A1
:101560003235A7FB05356D0905F0F0053544FFF769
:10157000B7FC00EB800000EB80006668B600B0FBB3
:10158000F6F6FFF7ADFC00EB800000EB800063682F
:101590009B00B0FBF3F3A7FB03235B0909FB136973
:1015A0004FEA091909F13209A7FB0937C7F34317B5
:1015B0002F44C8F80870BDE8F08700BF0010014054
:1015C0001F85EB512DE9F04105460F46164698461A
:1015D000069C2B681B6837EA03030CBF012300231A
:1015E000B3421ED1B4F1FF3FF3D02CB1FFF732F874
:1015F000A0EB08008442ECD22A68D36823F4D073AD
:10160000D3602A68536923F001035361202385F8CE
:10161000393085F83A30002385F838300320BDE8AA
:10162000F0810020BDE8F08158B310B5044690F871
:1016300039300BB3242384F839302268D36823F47B
:101640000053D3602046FFF71BFE2268136923F482
:10165000904313612268536923F02A03536122687F
:10166000D36843F40053D3600020E063202384F860
:10167000393084F83A3010BD80F8383000F004FD7D
:10168000D8E7012070472DE9F04182B01E4690F85E
:101690003930DBB2202B04D00223184602B0BDE85B
:1016A000F08104460D469046002955D0002A55D0B9
:1016B00090F83830012B01D10223EEE7012380F8A6
:1016C00038300023C363212380F83930FEF7C2FF8E
:1016D0000746A4F82480A4F8268010E000963B4634
:1016E000002280212046FFF76DFF002838D12268B4
:1016F0002B88C3F3080353602369CBB90235E38C0D
:101700009BB2BBB1E38C9BB2013B9BB2E384A36869
:10171000B3F5805FE2D000963B4600228021204650
:10172000FFF750FFF0B923682A785A600135E6E7E1
:101730000135E4E700963B46002240212046FFF7B2
:1017400041FF034608B10323A7E7202284F839208C
:10175000002284F83820A0E701239EE701239CE7BC
:1017600003239AE7032398E710B584B08DF80C00A3
:1017700000228DF80D208DF80E200B4C4FF4807157
:101780002046FFF7AFF84FF47A730093032302AAC1
:1017900003A90648FFF752FC01224FF4807120464E
:1017A000FFF7A0F804B010BD000002409C0000202C
:1017B00010B501224FF480711448FFF793F8144CD0
:1017C000012208212046FFF78DF85020FEF748FF40
:1017D000002208212046FFF785F85020FEF740FF41
:1017E000012208212046FFF77DF85020FEF738FF40
:1017F0004420FFF7B9FF6120FFF7B6FF0020FFF795
:10180000B3FF4FF49670FEF72BFF10BD00000240AF
:101810000004024010B586B0C0F307438DF81030C5
:10182000C0F307238DF811308DF8120000228DF8D7
:1018300013208DF814200C4C4FF480712046FFF7D4
:1018400051F84FF47A730093052302AA04A90748BC
:10185000FFF7F4FB01224FF480712046FFF742F8B6
:101860009DF80C0006B010BD000002409C00002056
:1018700008B50248FFF7CEFF08BD00BF00203000CA
:1018800010B586B0C0F307438DF81030C0F30723BE
:101890008DF811308DF8120000228DF813208DF88C
:1018A00014208DF815200F4C4FF480712046FFF75F
:1018B00019F84FF47A730093062302AA04A90A4880
:1018C000FFF7BCFB01224FF480712046FFF70AF8B6
:1018D0009DF80C009DF80D3000EB032080B206B09F
:1018E00010BD00BF000002409C00002008B5024867
:1018F000FFF7C6FF08BD00BF2020300010B584B040
:10190000C0F3074363F07F038DF80C30C0F3072367
:101910008DF80D308DF80E008DF80F100B4C002255
:101920004FF480712046FEF7DDFF4FF47A73009389
:10193000042302AA03A90648FFF780FB01224FF403
:1019400080712046FEF7CEFF04B010BD00000240BB
:101950009C00002010B586B0C0F3074363F07F03FE
:101960008DF81030C0F307238DF811308DF8120078
:101970008DF81310090A8DF814100C4C00224FF446
:1019800080712046FEF7AEFF4FF47A730093052373
:1019900002AA04A90648FFF751FB01224FF4807107
:1019A0002046FEF79FFF06B010BD00BF00000240BA
:1019B0009C00002010B586B0C0F3074363F07F039E
:1019C0008DF81030C0F307238DF811308DF8120018
:1019D0008DF81310C1F307238DF81430C1F30743BA
:1019E0008DF81530090E8DF816100C4C00224FF4AE
:1019F00080712046FEF776FF4FF47A730093072339
:101A000002AA04A90648FFF719FB01224FF48071CE
:101A10002046FEF767FF06B010BD00BF0000024081
:101A20009C00002008B502490248FFF7C3FF08BD2B
:101A3000008793030C20300008B54FF468713148DB
:101A4000FFF788FF58213048FFF784FF00212F4817
:101A5000FFF780FF30212E48FFF77CFF40F20D2179
:101A60002C48FFF777FF20212B48FFF773FF002159
:101A70002A48FFF76FFF03212948FFF76BFF00217A
:101A80002848FFF73BFF01212748FFF737FF4FF4B6
:101A900048712648FFF75EFF4FF4F0712448FFF7C6
:101AA00059FF00212348FFF729FF00212248FFF7B3
:101AB00025FF4FF6FF712148FFF74CFF4FF6FF71EE
:101AC0001F48FFF747FF6FF07D414FF44010FFF7CD
:101AD00071FF1C491C48FFF76DFF00211B48FFF7F1
:101AE00069FF0C211A48FFF765FF02211948FFF72B
:101AF00005FF02211848FFF701FF4FF49670FEF72B
:101B0000AFFD08BD2C2030003020300038203000E0
:101B10003C20300040203000442030004C20300079
:101B200050203000642030006C2030003420300021
:101B300048203000682030006020300098203000BD
:101B40009C20300007000026040030000800300010
:101B5000FC203000542030007020300010B56FF0B1
:101B6000CE014FF44210FFF725FF04213048FFF764
:101B700021FF0120FEF774FD2D48FFF781FE04468A
:101B80002C48FFF77DFE8442F6D14FF4FA60FEF751
:101B900067FD6FF07D414FF44010FFF70BFF2649C2
:101BA0002648FFF707FF26492648FFF703FF264987
:101BB0002648FFF7FFFE26492648FFF7FBFE264989
:101BC0002648FFF7F7FE26492648FFF7F3FE264989
:101BD0002648FFF7EFFE26492648FFF7EBFE4FF0B9
:101BE00004512548FFF7E6FE24492548FFF7E2FEA9
:101BF00024492548FFF7DEFE24494FF03010FFF757
:101C0000D9FE23492348FFF7D5FE4FF0045122485F
:101C1000FFF7D0FE00212148FFF7CCFE022120482B
:101C2000FFF76CFE40F6B830FEF71AFD10BD00BF9E
:101C3000FC203000F82030000700002604003000AF
:101C400001010104080030000100001F0C003000F9
:101C5000C8EF869B10003000C5EF069F14003000CF
:101C6000CCEF06A218003000CCEF66A51C003000B7
:101C7000CFEFC6A820003000240030000000FF0491
:101C8000280030004001000D2C0030000200001F31
:101C90000050089834003000380030003C0030001C
:101CA000542030002DE9F0418AB0002405940694B8
:101CB00007940894099401942F4B1A6B42F0040284
:101CC0001A631A6B02F004020192019A02941A6BD1
:101CD00042F080021A631A6B02F080020292029AAA
:101CE00003941A6B42F001021A631A6B02F00102AC
:101CF0000392039A04941A6B42F002021A631B6B5C
:101D000003F002030493049BDFF87C8022464FF427
:101D100080714046FEF7E6FD184E22460821304607
:101D2000FEF7E0FD4FF400530593154B069307941F
:101D300005A91448FEF702FD4FF4807305930125B1
:101D4000069507950327089705A94046FEF7F6FC78
:101D50000823059306950795089705A93046FEF7D1
:101D6000EDFC202305930694079405A93046FEF761
:101D7000E5FC0AB0BDE8F0810038024000040240F2
:101D800000002110000802400000024010B5144677
:101D90004FF47A7392B20248FFF775FC204610BDEB
:101DA000F400002030B595B03022002108A800F0E2
:101DB000EFF9002403940494059406940794019485
:101DC0001B4B1A6C42F080521A641B6C03F0805358
:101DD0000193019B0294174A136823F4404343F490
:101DE00000431360136803F440430293029B0225EF
:101DF000089501230B9310230C930E950F941093C9
:101E00004FF4A8731193042312930723139308A884
:101E1000FEF76EFD0F230393049505944FF4805352
:101E200006930794294603A8FEF798FF15B030BD26
:101E3000003802400070004010B5FEF7E5FBFFF7E8
:101E4000B1FFFFF72FFF00F005F900F057F8244825
:101E500000F01AFAFFF7ACFC002403E00134A4B24E
:101E6000642C21D8FFF704FD7C28F7D1632C25D9F9
:101E70006FF0B7014FF44210FFF79CFD04211948A1
:101E8000FFF798FD0024FFF731FDD8B10134A4B26B
:101E9000642CF8D9FFF72AFD0146134800F080F9B9
:101EA000C820FEF7DDFBEEE7FFF7E2FC01460F4836
:101EB00000F076F96420FEF7D3FBD7E70C4800F07A
:101EC000E3F9D5E7632C06D9FFF7ACFDFFF7B4FDC6
:101ED000FFF744FEFCE7074800F0D6F9F4E700BF3F
:101EE000F4300008FC203000383100080C310008C4
:101EF00028310008543100087047000008B50E482A
:101F00000E4B03604FF48273436000238360C36011
:101F1000036143614FF4007282611822C26103625F
:101F2000436283620A23C362FFF748F800B908BD21
:101F3000FFF7E2FFFBE700BF9C00002000300140FC
:101F400000B589B000230393049305930693079388
:101F50000268154B9A4202D009B05DF804FB0021DB
:101F6000019103F584335A6C42F480525A645A6CDE
:101F700002F480520192019A02911A6B42F001021E
:101F80001A631B6B03F001030293029BE02303938C
:101F900002230493032306930523079303A903480D
:101FA000FEF7CCFBD8E700BF003001400000024044
:101FB00000B583B0002100910C4B5A6C42F4804272
:101FC0005A645A6C02F480420092009A01911A6C91
:101FD00042F080521A641B6C03F080530193019B02
:101FE0000720FEF751FB03B05DF804FB0038024008
:101FF0007047FEE7FEE7FEE7FEE770477047704771
:1020000008B5FEF71BFB08BD0F49D1F8883043F433
:102010007003C1F888300D4B1A6842F001021A6053
:10202000002098601A6822F0847222F480321A60CC
:10203000074A5A601A6822F480221A60D8604FF06A
:1020400000638B60704700BF00ED00E00038024085
:102050001030002408B50A480A4B03604FF41653A9
:10206000436000238360C36003610C22426183618B
:10207000C361FFF7D9FA00B908BDFFF73DFFFBE7E1
:10208000F40000200044004000B589B00023039311
:1020900004930593069307930268144B9A4202D067
:1020A00009B05DF804FB0021019103F5FA331A6CC5
:1020B00042F400321A641A6C02F400320192019A5E
:1020C00002911A6B42F001021A631B6B03F00103C9
:1020D0000293029B0C230393022304930723079389
:1020E00003A90348FEF72AFBDAE700BF00440040DB
:1020F00000000240DFF834D0002103E00C4B5B58B5
:10210000435004310B480C4B42189A42F6D30B4A09
:1021100002E0002342F8043B094B9A42F9D3FFF74F
:1021200073FF00F011F8FFF787FE70470080012071
:102130000C32000800000020700000207000002019
:1021400038010020FEE7000070B50D4E0D4CA41BB9
:10215000A4100025A54209D10B4E0C4C00F0B2FF93
:10216000A41BA4100025A54205D170BD56F825304A
:1021700098470135EEE756F8253098470135F2E7E4
:102180000432000804320008043200080832000853
:1021900002440346934200D1704703F8011BF9E75C
:1021A0000FB40A4B13B51C6824B1A36913B92046B8
:1021B00000F024FA05AB049AA1680193204600F0D0
:1021C000E1FB02B0BDE8104004B070470C000020F5
:1021D00070B50E46054618B183690BB900F00EFACA
:1021E000AB69AC6813B9284600F008FA234B9C424F
:1021F00017D16C68A3891B071DD52369DBB1013E8C
:10220000A36816F8011F013BA360E9B9002B2EDA81
:1022100022460A21284600F03FF8013011D00A205A
:1022200070BD174B9C4201D1AC68E3E7154B9C4253
:1022300008BFEC68DEE72146284600F07FF800285A
:10224000DDD04FF0FF3070BD002B04DAA26993425D
:1022500006DB0A2904D023685A1C22601970CFE7D4
:102260002246284600F018F80130C9D1E9E7236872
:102270000A205A1C2260187070BD00BF8831000807
:10228000A831000868310008024B01461868FFF7C2
:102290009FBF00BF0C000020F8B50E46144605464F
:1022A00018B183690BB900F0A9F9214B9C422AD1DE
:1022B0006C68A369A360A3891A072ED5236963B349
:1022C00023692068C01A6369F6B29842374604DB76
:1022D0002146284600F028F928BBA368013BA360EB
:1022E00023685A1C22601E7063690130984204D032
:1022F000A389DB0719D50A2E17D12146284600F0FD
:1023000013F990B10FE00B4B9C4201D1AC68D0E7C0
:10231000094B9C4208BFEC68CBE72146284600F0F9
:102320000DF80028CCD04FF0FF373846F8BD00BF7D
:1023300088310008A831000868310008324B70B5B8
:102340001D6806460C4625B1AB6913B9284600F056
:1023500055F92E4B9C420FD16C68B4F90C309AB2EF
:1023600015072CD4D00611D40922326043F0400363
:10237000A3814FF0FF3070BD254B9C4201D1AC686A
:10238000EBE7244B9C4208BFEC68E6E7510712D507
:10239000616B41B104F14403994202D0304600F030
:1023A0001BFA00236363A38923F02403A381002382
:1023B000636023692360A38943F00803A381236931
:1023C0004BB9A38903F42073B3F5007F03D02146F2
:1023D000304600F0C1F9A28912F001030CD00023AD
:1023E000A36063695B42A361236953B9B4F90C30FC
:1023F00013F08000BAD170BD920758BF6369A36023
:10240000F2E70020F7E700BF0C0000208831000849
:10241000A8310008683100088A892DE9F041054695
:1024200010070C465AD44B68002B05DC0B6C002BB4
:1024300002DC0020BDE8F081E66A002EF9D000231E
:1024400012F480522F682B6033D0606DA3895A0735
:1024500005D56368C01A636B0BB1236CC01A0023E7
:102460000246E66A216A2846B047431CA38906D182
:1024700029681D294BD82B4ACA40D60747D50022C8
:102480006260D9042269226004D5421C01D12B6804
:1024900003B96065616B2F600029CAD004F1440361
:1024A000994202D0284600F097F900206063BDE809
:1024B000F081216A01232846B047411CC6D12B6810
:1024C000002BC3D01D2B01D0162B01D12F60B0E7FC
:1024D000A38943F04003A381BDE8F0810F69002F79
:1024E000A7D093070E6808BF4B690F6018BF002381
:1024F000A6EB07088B60B8F1000F9ADD43463A4619
:10250000216AA66A2846B047002807DCA38943F061
:102510004003A3814FF0FF30BDE8F0810744A8EBF2
:102520000008E8E70100402038B50B6905460C4675
:10253000DBB118B183690BB900F060F80C4B9C4219
:1025400009D16C68B4F90C307BB121462846BDE84E
:102550003840FFF761BF074B9C4201D1AC68F1E7FF
:10256000054B9C4208BFEC68ECE7002038BD00BF7B
:1025700088310008A831000868310008014900F0DE
:10258000A9B800BF29250008002310B50446036040
:102590004360836081814366C281036143618361DB
:1025A000194608225C30FFF7F3FD054B6362054BCB
:1025B000A362054BE362054B2462236310BD00BF99
:1025C000FD2E00081F2F0008572F00087B2F000842
:1025D00070B54A1E682555430E4605F1740100F09A
:1025E00049F9044640B1002180E842000C30A06067
:1025F00005F16802FFF7CCFD204670BD836910B578
:10260000044633BB8364C3640365124B124A1B68E0
:102610008262984204BF0123836100F01FF860606A
:10262000204600F01BF8A060204600F017F80022BA
:10263000E06004216068FFF7A7FF01220921A0687C
:10264000FFF7A2FF02221221E068FFF79DFF01239E
:10265000A36110BD643100087D250008F8B51C4B4E
:102660001E68B369074613B93046FFF7C7FF4836FF
:10267000B4687368013B03D5336833B13668F7E754
:10268000B4F90C506DB16834F4E704213846FFF713
:102690009FFF30600028F1D10C233B6004462046A8
:1026A000F8BD4FF6FF73E3810123A38165662560C2
:1026B000A560656025616561A5610822294604F170
:1026C0005C00FFF765FD6563A563A564E564E6E767
:1026D000643100082DE9F8438046894600F148043A
:1026E000002614B93046BDE8F883A5686768013F45
:1026F00001D52468F5E7AB89012B07D9B5F90E3070
:10270000013303D029464046C84706436835EEE703
:1027100070B50E46B1F90E10002990B014461D4652
:1027200007DA00232B60B3891A0610D44FF48063B4
:102730000EE001AA00F048FC0028F2DB029A02F445
:102740007042A2F500535A425A412A60EEE74023F4
:102750000020236010B070BD8B8973B59D070646BD
:102760000C4607D504F1470323602361012363610D
:1027700002B070BD01AB6A46FFF7CAFF009905467B
:10278000304600F077F848B9B4F90C309A05EFD428
:1027900023F0030343F00203A381E3E70D4BB3628D
:1027A000A389206043F08003A381009B6361019BA8
:1027B00020615BB1B4F90E10304600F017FC28B16F
:1027C000A38923F0030343F00103A381A3891D43DD
:1027D000A581CDE77D25000838B50546002945D0FF
:1027E00051F8043C0C1F002BB8BFE41800F020FC8B
:1027F0001F4A1368104633B9636014602846BDE869
:10280000384000F016BCA3420CD9216862189342EC
:1028100004BF1A685B68636004BF521822600460DA
:10282000ECE713465A680AB1A242FAD91968581857
:10283000A0420BD120680144581882421960DDD1B2
:10284000106852685A6001441960D7E702D90C2316
:102850002B60D3E7206821188A4204BF11685268B0
:10286000626004BF091821605C60C7E738BD00BF23
:102870008C00002070B5CD1C25F0030508350C2D0B
:1028800038BF0C25002D064601DBA94203D90C23D5
:102890003360002070BD00F0CBFB234A1468214652
:1028A00091B9224C23681BB9304600F017FB206019
:1028B0002946304600F012FB431C26D10C2333601E
:1028C000304600F0B6FBE4E70B685B1B1AD40B2B19
:1028D0000FD90B60CD50CC18304600F0AAFB04F1A4
:1028E0000B00231D20F00700C31A1BD05A42E250F0
:1028F00070BD8C420DBF63684B686360136018BF86
:102900000C46E9E70C464968CAE7C41C24F00304F6
:10291000A04205D0211A304600F0E0FA0130CDD0B7
:102920002560D9E770BD00BF8C000020900000201A
:102930009368013B002B10B4936009DA9469A342B9
:1029400002DBCBB20A2B03D15DF8044BFFF7A4BC2A
:102950001368581C10601970C8B25DF8044B7047BA
:10296000F8B506460F461446D518AC4201D10020F2
:1029700007E03A4614F8011B3046FFF7D9FF431C25
:10298000F3D1F8BD2DE9F04F9DB00C4617460393E7
:10299000064618B183690BB9FFF730FE7C4B9C42A9
:1029A00057D17468A38918075DD52369002B5AD0C5
:1029B0000023099320238DF8293030238DF82A3005
:1029C0004FF0010BB846454615F8013B002B55D199
:1029D000B8EB070A0BD053463A4621463046FFF77C
:1029E000BFFF013000F0C480099B5344099398F85D
:1029F0000030002B00F0BC8000234FF0FF32049326
:102A00000793059206938DF853301A93052229787F
:102A10006048FDF785FD05F10108049B002831D1D0
:102A2000D90644BF20228DF853201A0744BF2B2219
:102A30008DF853202A782A2A2CD0079A00210A20C0
:102A4000A846013598F80030303B092B6DD971B399
:102A500026E0514B9C4201D1B468A3E74F4B9C4206
:102A600008BFF4689EE721463046FFF767FC002860
:102A70009ED04FF0FF301DB0BDE8F08F252BA7D0C2
:102A8000A846A0E7434A801A0BFA00F018430490C6
:102A90004546BBE7039A111D12680391002A01DB2A
:102AA000079204E0524243F002030792049398F81D
:102AB00000302E2B10D198F801302A2B08F101019B
:102AC00037D1039B1A1D1B680392002BB8BF4FF030
:102AD000FF3308F102080593314D98F800100322E6
:102AE0002846FDF71DFD40B14023401B03FA00F0CE
:102AF000049B0343049308F1010898F80010294847
:102B00008DF82810062208F10107FDF709FD0028BD
:102B100034D0254B03BB039B073323F00703083353
:102B20000393099B4B4409934CE700FB02320121BC
:102B300086E70023059318460A258846013198F850
:102B40000020303A092A03D9002BC5D00590C3E7ED
:102B500005FB00200123F0E703AB00932246134B53
:102B600004A93046AFF30080B0F1FF3F8146D8D1D1
:102B7000A3895B063FF57DAF09987CE703AB009323
:102B800022460A4B04A9304600F088F8ECE700BF63
:102B900088310008C8310008A831000868310008F1
:102BA000CE310008D2310008000000006129000881
:102BB0002DE9F04791461F468A680B69DDF82080B1
:102BC0009342B8BF1346C9F8003091F84320064637
:102BD0000C4612B10133C9F800302368990642BF90
:102BE000D9F800300233C9F80030256815F0060521
:102BF00007D104F1190AE368D9F800209B1A9D4215
:102C000029DB94F843302268003318BF0123920671
:102C10002ED404F1430239463046C047013021D05A
:102C20002368E568D9F8002003F00603042B08BFE9
:102C3000AD1AA36822690CBF25EAE5750025934209
:102C4000C4BF9B1AED184FF000091A344D451BD133
:102C50000020BDE8F0870123524639463046C04780
:102C6000013003D14FF0FF30BDE8F0870135C2E7F6
:102C7000E1185A1C302081F84300224494F8451092
:102C800082F843100233C4E7012322463946304616
:102C9000C0470130E6D009F10109D7E72DE9F0433B
:102CA00017460A7E85B06E2A984606460C460C9B4F
:102CB00001F1430E00F0BC801AD8632A2ED00AD846
:102CC000002A00F0C880582A00F08A8004F14205EA
:102CD00084F842202AE0642A01D0692AF6D12168CA
:102CE0001A6811F0800F23D0111D1960136827E0B6
:102CF000732A00F0B48008D86F2A2AD0702AE5D150
:102D00000A6842F020020A6003E0752A21D0782A7E
:102D1000DCD1782284F845206E4964E01A6801F11C
:102D20004205111D1960136884F842300123A3E0A5
:102D300011F0400F02F104011960D7D0B2F9003050
:102D4000002B03DA2D225B4284F8432062490A22D9
:102D500017E02068196810F0800F03D0081D186074
:102D60000B6806E010F0400F01F104001860F7D086
:102D70000B8859496F2A14BF0A220822002084F8C0
:102D800043006568A560002DC0F29C80206820F09B
:102D900004002060002B3FD1002D40F09580754647
:102DA000082A0BD12368DA0708D5236962689A429A
:102DB000DEBF302305F8013C05F1FF35AEEB05031E
:102DC0002361CDF800803B4603AA21463046FFF739
:102DD000EFFE013055D14FF0FF3005B0BDE8F08374
:102DE00081F845203C492268186812F0800F00F1F4
:102DF00004051D6001D0036802E05506FBD5038879
:102E0000D00744BF42F0200222601BB9226822F0A2
:102E1000200222601022B1E77546B3FBF2F002FBFC
:102E20001033CB5C05F8013D03460028F5D1B7E728
:102E300008681A68496910F0800F04D0101D1860E6
:102E40001368196007E010F0400F02F104001860E9
:102E50001368F6D01980002323617546B1E71A681C
:102E6000111D19601568626800212846FDF758FB9E
:102E700008B1401B606063682361002384F843301D
:102E80009FE723692A4639463046C0470130A2D021
:102E900023689B0707D5002504F11909E368039A05
:102EA0009B1A9D4205DBE068039B9842B8BF184619
:102EB00093E701234A4639463046C04701308AD05D
:102EC0000135EBE7002BA7D10B7884F8423004F1F1
:102ED000420565E7EA310008D931000838B5064CEB
:102EE000002305460846236000F0DEF8431C02D1AB
:102EF000236803B12B6038BD3401002010B50C46A7
:102F0000B1F90E1000F096F80028ABBF636DA389ED
:102F10001B1823F48053ACBF6365A38110BD2DE95A
:102F2000F0411F468B89DB0505460C46164605D544
:102F300002230022B1F90E1000F068F8A389B4F959
:102F40000E1023F48053A38132463B462846BDE849
:102F5000F04100F017B810B50C46B1F90E1000F0B2
:102F600055F8431CA38915BF606523F4805343F4CF
:102F70008053A38118BFA38110BDB1F90E1000F0DA
:102F800013B8000038B5074C054608461146002224
:102F900022601A46FEF7FAFE431C02D1236803B1F1
:102FA0002B6038BD3401002038B5064C002305469F
:102FB0000846236000F050F8431C02D1236803B197
:102FC0002B6038BD3401002038B5074C002305467E
:102FD00008461146236000F047F8431C02D12368DD
:102FE00003B12B6038BD00BF3401002038B5064C5A
:102FF000002305460846236000F03EF8431C02D13A
:10300000236803B12B6038BD3401002038B5074C6C
:10301000054608461146002222601A4600F034F8A0
:10302000431C02D1236803B12B6038BD340100205A
:103030007047704738B5074C0546084611460022D0
:1030400022601A4600F028F8431C02D1236803B11D
:103050002B6038BD34010020024B58221A604FF01B
:10306000FF30704734010020024B58221A604FF0A5
:10307000FF30704734010020024B58221A600020B4
:10308000704700BF34010020024B58221A604FF0F5
:10309000FF30704734010020024B58221A604FF075
:1030A000FF30704734010020044A05491368002BA3
:1030B00008BF0B4618441060184670479400002063
:1030C00038010020F8B500BFF8BC08BC9E46704728
:0C30D000F8B500BFF8BC08BC9E46704775
:1030DC0000000000000000000102030406070809BC
:1030EC000000000001020304496E697469616C6997
:1030FC007A65205375636365737321210D0000009D
:10310C00455645204E4F5420466F756E6421212044
:10311C003A3078257820200D0A00000045564520CD
:10312C00466F756E6421210D000000004556452048
:10313C004E4F54204163746976652121203A2564F1
:10314C0020200D0A0000000045564520416374699B
:10315C00766521210D000000100000200000000009
:10316C000000000000000000000000000000000053
:10317C000000000000000000000000000000000043
:10318C000000000000000000000000000000000033
:10319C000000000000000000000000000000000023
:1031AC000000000000000000000000000000000013
:1031BC00000000000000000000000000232D302B58
:1031CC002000686C4C00656667454647003031321C
:1031DC003334353637383941424344454600303173
:1031EC0032333435363738396162636465660000D2
:0831FC0040D0FF7F010000003C
:04320400C5010008F8
:04320800A101000818
:10320C0001000000100000000024F4001000002059
:10321C000000000088310008A8310008683100085F
:10322C000000000000000000000000000000000092
:10323C000000000000000000000000000000000082
:10324C000000000000000000000000000000000072
:10325C000000000000000000000000000000000062
:10326C000000000000000000000000000000000052
:04000005080020F5DA
:00000001FF
